:04000000FEEFFFF020
:1020000000000D6E2F0E0D6408EF10F00AEF10F0B7
:1020100071EF10F03A0E0D6010EF10F012EF10F0AB
:1020200071EF10F02F503010D8A419EF10F01BEF03
:1020300010F048EF10F00A0E37026F00CCFF0BF0E3
:102040006F00D0FF0CF03802F3500C260D500B2619
:10205000000E0C22D00E0B24376EFF0E0C20386EB3
:10206000314A322A020E31183210D8A43AEF10F059
:102070003CEF10F0B2EF10F0000E306E010E2F6E3C
:10208000000E326E000E316E010ECD6EB2EF10F00A
:102090000A0E35026F00CCFF0BF06F00D0FF0CF082
:1020A0003602F3500C260D500B26000E0C22D00EDB
:1020B0000B24356EFF0E0C20366E314A322A020E8A
:1020C00031183210D8A467EF10F069EF10F0B2EFBA
:1020D00010F0000E326E000E316E020ECD6EB2EFB9
:1020E00010F0410E0D18D8B478EF10F07AEF10F020
:1020F00095EF10F0420E0D18D8B481EF10F083EF79
:1021000010F095EF10F0430E0D18D8B48AEF10F0D0
:102110008CEF10F095EF10F0440E0D18D8A493EF4B
:1021200010F095EF10F099EF10F00DC039F0B2EF0C
:1021300010F0230E0D18D8A4A0EF10F0A2EF10F0AD
:10214000A7EF10F0CD6A38EC11F0B2EF10F02A0EC4
:102150000D18D8A4AEEF10F0B0EF10F0B2EF10F001
:1021600056EC12F0120020EE1BF010EE02F00F0EF3
:102170006F006FFFE3FFE806FBE22BC012F02CC0FC
:1021800013F02DC014F02EC015F0000E176E000EC7
:10219000166E1650120FD96EDA6ADF50BB6E070E3C
:1021A000016E7D0EE82EFED7012EFCD70000CBB8C5
:1021B000DCEF10F0DEEF10F0E7EF10F01650040D3A
:1021C000F350020FD96EDA6ADF5037EF11F0CBBA55
:1021D000ECEF10F0EEEF10F0FCEF10F01650040DE5
:1021E0006F00CCFF01F0010E01260150020FD96EE5
:1021F000DA6ADF5037EF11F0CBBC01EF11F003EFDB
:1022000011F011EF11F01650040D6F00CCFF01F02A
:10221000020E01260150020FD96EDA6ADF5037EF45
:1022200011F0CBBE16EF11F018EF11F026EF11F000
:102230001650040D6F00CCFF01F0030E0126015073
:10224000020FD96EDA6ADF5037EF11F0164A172AFB
:1022500017BE34EF11F0175009E1040E165CD8A038
:1022600034EF11F036EF11F0C9EF10F0000E12004C
:10227000410E3918D8A43FEF11F041EF11F049EFAA
:1022800011F035503724336E36503820346E98EFC5
:1022900011F0420E3918D8A450EF11F052EF11F09E
:1022A0005AEF11F03550375C336E36503858346E73
:1022B00098EF11F0430E3918D8A461EF11F063EFD5
:1022C00011F078EF11F0355037026F00CCFF09F0B4
:1022D0006F00D0FF0AF03802F3500A26365037025A
:1022E000F3500A2609C033F00AC034F098EF11F019
:1022F000440E3918D8A47FEF11F081EF11F098EF58
:1023000011F035503610D8B488EF11F08AEF11F083
:1023100098EF11F037C001F038C002F035C003F07B
:1023200036C004F0AFEC11F001C033F002C034F05D
:1023300033C001F034C002F06DEC12F0000E386EC4
:10234000000E376E000E366E000E356E000E326EC9
:10235000000E316E000E306E000E2F6E1200066AF7
:1023600004BEB7EF11F0B5EF11F0BDEF11F0036C43
:10237000041ED8B0042A010E066E02BEC4EF11F08E
:10238000C2EF11F0CAEF11F0016C021ED8B0022AA0
:10239000010E061A000E086E000E076E03500410A0
:1023A000D8B4D5EF11F0D7EF11F0FFEF11F0010E17
:1023B000056EDFEF11F0D89003360436052A04AE1F
:1023C000E4EF11F0E6EF11F0DBEF11F0D8900736F3
:1023D00008360350015C04500258D8A0F2EF11F007
:1023E000F4EF11F0F9EF11F00350015E0450025ABE
:1023F0000780D89004320332052EE6EF11F0065024
:10240000D8B405EF12F007EF12F00BEF12F0076CE3
:10241000081ED8B0082A07C001F008C002F0120058
:102420007CEC12F056EC12F0B3EC10F01A6E1A506D
:10243000D8B41DEF12F01FEF12F014EF12F01A5083
:1024400001EC10F0020E196E860E186E990EE82E31
:10245000FED7182EFCD7192EFAD70000B3EC10F0D7
:102460000009D8A436EF12F038EF12F02EEF12F078
:1024700014EF12F0FEEFFFF00E0EF66E250EF76E63
:10248000000EF86E00EE1BF010EE14F009006F0065
:10249000D7FFEEFFE550E150F9E100EE2FF00B0E13
:1024A000EE6AE806FDE1000110EF12F0000E386E52
:1024B000000E376E000E366E000E356E000E346E56
:1024C000000E336E396A000E326E000E316E000E51
:1024D000306E000E2F6ECD6A120002BE74EF12F045
:1024E00072EF12F078EF12F0016C021ED8B0022ADF
:1024F000600007F0CDFF12000F0EBB6E3A01506B6B
:10250000F00EC36ECB68706BC56ABD6A12003132C3
:10251000334134353642373839432A302344FEFDBF
:02252000FBF7C7
:020000040001F9
:04FFFC003CEF12F0D4
:020000040030CA
:0A000000F8FFFFFF9FFFFFFFFFFF67
:00000001FF
