:0400000057EF20F0A6
:102000000054686520496E707574204C6967687467
:0F2010003A00204C555820202020002564000065
:104008002B102B102B102B102B102B102B108B146C
:104018002B102B102B102B102B102B102B102B10C0
:104028002B102B102B102B102B102B102B102B10B0
:104038002B102B102B102B102B102B102B102B10A0
:104048002B102B102B102B102B102B102B102B1090
:104058002B102B102B102B102B102B102B102B1080
:104068002B102B102B102B102B102B102B102B1070
:104078002B102B102B102B102B102B102B102B1060
:104088002B102B102B102B102B102B102B102B1050
:104098002B102B102B102B102B102B102B102B1040
:1040A8002B102B10FF0017EF2AF02F50800B386EC3
:1040B8002F502F243A6E2EAE64EF20F066EF20F0DA
:1040C80067EF20F03A803A50D8B46DEF20F06FEFE8
:1040D80020F083EF20F03A28D8A475EF20F077EF8E
:1040E80020F07FEF20F0000E2C6E000E2D6E000EDB
:1040F8002E6E000E2F6E2E8E2F6A8BEF20F0000E84
:104108002C6E000E2D6E000E2E6E000E2F6E33508C
:10411800800B396E38503918D8B495EF20F097EFE6
:1041280020F098EF20F0388C33503324396E32AEBB
:10413800A0EF20F0A2EF20F0A3EF20F03980395053
:10414800D8B4A9EF20F0ABEF20F0BFEF20F039286A
:10415800D8A4B1EF20F0B3EF20F0BBEF20F0000EB1
:10416800306E000E316E000E326E000E336E328EDF
:10417800336AC7EF20F0000E306E000E316E000E6D
:10418800326E000E336E3A50395CD8B0CEEF20F064
:10419800D0EF20F0F7EF20F038ACD5EF20F0D7EFD4
:1041A80020F0D9EF20F0800E381A3AC03BF039C021
:1041B8003AF03BC039F02CC03BF030C02CF03BC08B
:1041C80030F02DC03BF031C02DF03BC031F02EC097
:1041D8003BF032C02EF03BC032F02FC03BF033C072
:1041E8002FF03BC033F03B6A3A5039C034F0356A9F
:1041F800345E000E355A35BE0BEF21F0355009E11B
:104208001A0E345CD8A00BEF21F00DEF21F044EF2B
:1042180021F02C502D102E102F10D8A416EF21F0BD
:1042280019EF21F0010E1AEF21F0000E3B6E000E7F
:104238002C6E000E2D6E000E2E6E000E2F6E39C0E5
:104248003AF04DEF21F03BA02CEF21F02EEF21F0BA
:1042580034EF21F0D8903B3001093B6E36EF21F066
:10426800D8903B322CA03BEF21F03DEF21F03EEF00
:1042780021F03B8E2F342F322E322D322C323A2A17
:1042880039503A5CD8A04BEF21F04DEF21F027EFE1
:1042980021F038BC52EF21F054EF21F094EF21F0D7
:1042A8003A50D8A45AEF21F05CEF21F066EF21F0E4
:1042B800000E2C6E000E2D6E000E2E6E000E2F6E50
:1042C800B3EF22F030502C2631502D2232502E22BE
:1042D80033502F222FA073EF21F075EF21F021EF3B
:1042E80022F03BA07AEF21F07CEF21F082EF21F061
:1042F800D8903B3001093B6E84EF21F0D8903B32D7
:104308002CA089EF21F08BEF21F08CEF21F03B8E70
:104318002F342F322E322D322C323A2A21EF22F02E
:1043280030502C5C31502D5832502E582F50800A66
:10433800346E3350800A3458D8B0A5EF21F0A7EF77
:1043480021F0D2EF21F02C50305C346E2D503158D2
:10435800356E2E503258366E2F503358376EFF0E4A
:1043680034242C6EFF0E35202D6EFF0E36202E6E57
:10437800FF0E37202F6E800E381A3B6C3B50D8A4A6
:10438800C8EF21F0CAEF21F0DAEF21F0010E2C2658
:10439800000E2D222E222F22DAEF21F030502C5E33
:1043A80031502D5A32502E5A33502F5A2C502D102E
:1043B8002E102F10D8A4E3EF21F0E5EF21F01AEF2B
:1043C80022F03B50D8A4EBEF21F0EDEF21F01AEFEB
:1043D80022F0000E2C6E000E2D6E000E2E6E000EBA
:1043E8002F6EB3EF22F0D8902C362D362E362F367E
:1043F8003BAE01EF22F003EF22F004EF22F02C8015
:104408003BA009EF22F00BEF22F00FEF22F0D8804B
:104418003B3611EF22F0D8903B363A50D8B417EF1C
:1044280022F019EF22F01AEF22F03A062EAE1FEF13
:1044380022F021EF22F0F7EF21F0396A3BAE27EFA7
:1044480022F029EF22F041EF22F03BC034F07F0E3A
:104458003416D8B432EF22F034EF22F038EF22F0DD
:10446800010E396E41EF22F02CA03DEF22F03FEF14
:1044780022F041EF22F034EF22F03950D8B447EF60
:1044880022F049EF22F074EF22F0010E2C26000EE4
:104498002D222E222F222FA054EF22F056EF22F0A9
:1044A80074EF22F02CC034F02DC035F02EC036F059
:1044B8002FC037F03734373236323532343234C0E1
:1044C8002CF035C02DF036C02EF037C02FF03A282A
:1044D800D8B471EF22F073EF22F074EF22F03A2A89
:1044E8003A28D8B47AEF22F07CEF22F084EF22F059
:1044F8003A50D8A482EF22F084EF22F095EF22F010
:10450800000E2C6E000E2D6E000E2E6E000E2F6EFD
:104518003A50D8A492EF22F094EF22F095EF22F0CF
:10452800386A3AA09AEF22F09CEF22F09FEF22F02F
:104538002E8EA0EF22F02E9ED8903A302F6E38AEF5
:10454800A8EF22F0AAEF22F0ABEF22F02F8E2CC0BA
:104558002CF02DC02DF02EC02EF02FC02FF0120001
:104568001650800B1F6E16501624256E15AEBFEF21
:1045780022F0C1EF22F0C2EF22F025802550D8B4F6
:10458800C8EF22F0CAEF22F0DDEF22F02528D8A4E8
:10459800D0EF22F0D2EF22F0DAEF22F0000E136E05
:1045A800000E146E000E156E000E166E158EE5EFD9
:1045B80022F0000E136E000E146E000E156E000E23
:1045C800166E1A50800B1F1A1A501A24206E19AE34
:1045D800F0EF22F0F2EF22F0F3EF22F020802050EB
:1045E800D8B4F9EF22F0FBEF22F00EEF23F02028E9
:1045F800D8A401EF23F003EF23F00BEF23F0000E14
:10460800176E000E186E000E196E000E1A6E198EB7
:1046180016EF23F0000E176E000E186E000E196EBE
:10462800000E1A6E2050D8B41CEF23F01EEF23F0B2
:1046380026EF23F02550D8A424EF23F026EF23F00B
:1046480030EF23F0000E136E000E146E000E156E80
:10465800000E166ED8EF24F0195013026F00CCFF2D
:104668002AF06F00D0FF2BF02A50216E226A236AAD
:10467800246A2B50266E276A286A296A1850140261
:104688006F00CCFF2AF06F00D0FF2BF02A502126B4
:10469800000E2222232224222B502626000E272217
:1046A80028222922175015026F00CCFF2AF06F002C
:1046B800D0FF2BF02A502126000E2222232224226A
:1046C8002B502626000E27222822292223C024F038
:1046D80022C023F021C022F0216A175014026F0073
:1046E800CCFF2AF06F00D0FF2BF02A5021262B5048
:1046F8002222000E2322000E2422185013026F00DB
:10470800CCFF2AF06F00D0FF2BF02A5021262B5027
:104718002222000E2322000E242223C024F022C0CD
:1047280023F021C022F0216A175013026F00CCFF3A
:104738002AF06F00D0FF2BF02A5021262B5022227E
:10474800000E2322000E2422195014026F00CCFF01
:104758002AF06F00D0FF2BF02A5026262B50272254
:10476800000E2822000E2922185015026F00CCFFD7
:104778002AF06F00D0FF2BF02A5026262B50272234
:10478800000E2822000E2922195015026F00CCFFB6
:104798002AF06F00D0FF2BF02A501B6E2B501C6E96
:1047A8001D6A1E6A1DC01EF01CC01DF01BC01CF037
:1047B8001B6A1B5026261C5027221D5028221E50DB
:1047C800292221C01BF022C01CF023C01DF024C0E8
:1047D8001EF0190EF5EF23F0D8901E321D321C3250
:1047E8001B32E82EF0EF23F01B5026261C50272200
:1047F8001D5028221E50292223C024F022C023F055
:1048080021C022F0216A205025C01BF01C6A1B26FB
:10481800000E1C22820E1B242A6EFF0E1C202B6EFB
:104828002BEF24F0D890263627362836293624AEA2
:1048380020EF24F022EF24F023EF24F02680D890F4
:1048480021362236233624362A06D8A02B0628AE4F
:1048580030EF24F032EF24F016EF24F0206A24AE73
:1048680038EF24F03AEF24F05EEF24F0FF0E211425
:104878001B6EFF0E22141C6EFF0E23141D6E7F0E7E
:1048880024141E6E1B501C101D101E10D8B44FEFA0
:1048980024F051EF24F055EF24F0010E206E5EEF66
:1048A80024F026A05AEF24F05CEF24F05EEF24F009
:1048B80051EF24F02050D8B464EF24F066EF24F0D0
:1048C8008AEF24F0010E2626000E2722282229220C
:1048D80029A071EF24F073EF24F08AEF24F026C0AA
:1048E8001BF027C01CF028C01DF029C01EF01E3484
:1048F8001E321D321C321B321BC026F01CC027F092
:104908001DC028F01EC029F02A4A2B2A2BBE95EF7D
:1049180024F02B5008E12A28D8A095EF24F097EF2F
:1049280024F0A1EF24F0000E266E000E276E800EF4
:10493800286E7F0E296ECEEF24F02BBEAEEF24F04A
:104948002B5006E12A04D8B0ACEF24F0AEEF24F0E7
:10495800B9EF24F0000E266E000E276E000E286EAA
:10496800000E296E1F6ACEEF24F02AC025F0FF0E34
:104978002616FF0E27167F0E2816000E291625A0CC
:10498800C8EF24F0CAEF24F0CBEF24F0288ED8909B
:104998002530296E1F50291226C013F027C014F0A5
:1049A80028C015F029C016F012001050D96EDA6A26
:1049B8006F007FFFF6FF200EF76E0800F550250AFE
:1049C800D8A4E9EF24F0EBEF24F0A8EF25F010507D
:1049D800D96EDA6ADF2A000E476E000E466E46C0B0
:1049E8004CF0486849681050D96EDA6ADF50146E86
:1049F800600053F0F6FF200EF76E0800F550640AC9
:104A0800D8B409EF25F00BEF25F01AEF25F0600078
:104A180053F0F6FF200EF76E0800F550690AD8A487
:104A280018EF25F01AEF25F0A2EF25F01150D96EF6
:104A3800DA6A020EDF26DF5CD96EDA6A6F0078FF69
:104A480015F06F0078FF16F01050D96EDA6A142846
:104A5800DF6E200E196E16BE34EF25F037EF25F005
:104A6800010E38EF25F0000E136E19061950600F6D
:104A7800D96EDA6A15C005F016C006F0000E086E89
:104A88000A0E076E2FEC28F005C00BF006C00CF0DC
:104A9800FDEC29F00B50300FDF6E15C005F016C085
:104AA80006F0000E086E0A0E076ECEEC27F005C061
:104AB80015F006C016F015501610D8B466EF25F09C
:104AC80068EF25F070EF25F01950D8A46EEF25F0A7
:104AD80070EF25F039EF25F01950D8B476EF25F0AE
:104AE80078EF25F097EF25F01350D8B47EEF25F036
:104AF80080EF25F097EF25F019061950600FD96E51
:104B0800DA6A2D0EDF6E97EF25F01950600FD96E17
:104B1800DA6ADF50126E1250056E066A0FC007F08F
:104B280086EC28F0192A200E1918D8A49EEF25F033
:104B3800A0EF25F089EF25F0BAEF25F01050D96ED7
:104B4800DA6ADF2ABAEF25F01050D96EDA6A6F00F8
:104B58007FFFF6FF200EF76E0800F550056E066A17
:104B68000FC007F086EC28F0A2EF25F012000D6EBA
:104B78000D50D8B4C2EF25F0C4EF25F0E6EF25F0CC
:104B880008BECBEF25F0C9EF25F0E6EF25F005C00C
:104B980009F006C00AF007C00BF008C00CF0091EA7
:104BA8000A1E0B1E0C1E092A000E0A220B220C22BA
:104BB80009C00FF00AC010F00BC011F00CC012F0C1
:104BC800EEEF25F005C00FF006C010F007C011F099
:104BD80008C012F00550061007100810D8A4F7EF07
:104BE80025F0F9EF25F003EF26F0000E056E000E14
:104BF800066E000E076E000E086E94EF26F0960EF5
:104C08000E6E0DEF26F00E2AD890123211321032A5
:104C18000F32000E0F14096E000E10140A6E000EEB
:104C280011140B6EFE0E12140C6E09500A100B10A4
:104C38000C10D8A422EF26F024EF26F007EF26F078
:104C480032EF26F00E2A010E0F26000E1022112236
:104C58001222D8901232113210320F32000E0F1475
:104C6800096E000E10140A6E000E11140B6EFF0E62
:104C780012140C6E09500A100B100C10D8A447EF30
:104C880026F049EF26F026EF26F051EF26F00E0623
:104C9800D8900F3610361136123611BE56EF26F060
:104CA80058EF26F060EF26F0020E0E605EEF26F059
:104CB80060EF26F04BEF26F00EB065EF26F067EFB9
:104CC80026F068EF26F0119ED8900E320EC009F03B
:104CD8000A6A0B6A0C6A09C00CF00B6A0A6A096A4C
:104CE80009500F120A5010120B5011120C501212C8
:104CF8000D50D8B482EF26F084EF26F08CEF26F022
:104D080008BE8BEF26F089EF26F08CEF26F0128E86
:104D18000FC005F010C006F011C007F012C008F06F
:104D2800120043EC2AF02EEC2AF057EC2AF0C49635
:104D3800BC96000E0E6E010E0F6E0F50D8A4200EFA
:104D4800106E010EC3EC29F03E01F881F8B1AFEF07
:104D580026F0B1EF26F0AAEF26F0EF516F00C0FB66
:104D680080F00001816B80C081F0806B80114A6EF9
:104D780081514B6E4AC005F04BC006F0000E06BECE
:104D8800FF0E076E086E010EBBEC25F005C013F090
:104D980006C014F007C015F008C016F0000E176E14
:104DA800000E186EA00E196E3A0E1A6EB4EC22F0B0
:104DB80013C057F014C058F015C059F016C05AF077
:104DC8007B0E306E540E316E070E326EC30E336E8C
:104DD800480E176E610E186EAA0E196E420E1A6EE4
:104DE80057C013F058C014F059C015F05AC016F047
:104DF800B4EC22F013C02CF014C02DF015C02EF026
:104E080016C02FF059EC20F02CC03CF02DC03DF01E
:104E18002EC03EF02FC03FF04BEC27F03CC082F094
:104E28003DC083F0000183BF1EEF27F01CEF27F081
:104E380022EF27F0000E836F000E826F4D0E1E6E5C
:104E48001B0E1F6E82C020F083C021F0E3EC29F016
:104E58004D0E056E120E066E4FEC29F0040E0E6E06
:104E68004D0E0F6E106A020EC3EC29F0030E0001FE
:104E7800816F8A0E806F550EE82EFED7802FFCD7E3
:104E8800812FFAD700D0A8EF26F057EF20F03E3454
:104E98003F34456E4550D8A454EF27F056EF27F01D
:104EA80060EF27F0000E3C6E000E3D6E000E3E6E69
:104EB800000E3F6ECDEF27F03CC040F03DC041F002
:104EC8003EC042F03FC043F0200E70EF27F0D8906C
:104ED8004332423241324032E82E6BEF27F04050E5
:104EE800446E3E8EFF0E3C16FF0E3D16FF0E3E161C
:104EF800000E3F16960E455E45BE87EF27F085EFFC
:104F080027F09DEF27F04550800A970FD8B08FEF14
:104F180027F091EF27F093EF27F056EF27F0D8907E
:104F28003F323E323D323C32453E93EF27F0B5EFFB
:104F380027F01F0E4564A3EF27F0A5EF27F0ADEF8C
:104F480027F056EF27F0D8903C363D363E363F36B0
:104F580045064550D8A4B3EF27F0B5EF27F0A7EFE3
:104F680027F04450D8B4BBEF27F0BDEF27F0C5EFCA
:104F780027F03F1E3E1E3D1E3C6C000E3D223E2289
:104F88003F223CC03CF03DC03DF03EC03EF03FC03B
:104F98003FF012000A6A08BED6EF27F0D4EF27F0D8
:104FA800DCEF27F0076C081ED8B0082A010E0A6E3D
:104FB80006BEE3EF27F0E1EF27F0E9EF27F0056CF5
:104FC800061ED8B0062A010E0A1A000E0C6E000E34
:104FD8000B6E07500810D8B4F4EF27F0F6EF27F05F
:104FE8001EEF28F0010E096EFEEF27F0D890073665
:104FF8000836092A08AE03EF28F005EF28F0FAEF83
:1050080027F0D8900B360C360750055C0850065828
:10501800D8A011EF28F013EF28F018EF28F0075068
:10502800055E0850065A0B80D89008320732092EC0
:1050380005EF28F00A50D8B424EF28F026EF28F01E
:105048002AEF28F00B6C0C1ED8B00C2A0BC005F008
:105058000CC006F012000A6A06BE37EF28F035EFDA
:1050680028F03DEF28F0056C061ED8B0062A010E80
:105078000A6E08BE44EF28F042EF28F048EF28F007
:10508800076C081ED8B0082A07500810D8B44FEF8C
:1050980028F051EF28F075EF28F0010E096E59EF4E
:1050A80028F0D89007360836092A08AE5EEF28F0AF
:1050B80060EF28F055EF28F00750055C08500658B7
:1050C800D8A069EF28F06BEF28F06FEF28F00750B1
:1050D800055E0850065AD89008320732092E60EF4C
:1050E80028F00A50D8B47BEF28F07DEF28F081EF44
:1050F80028F0056C061ED8B0062A05C005F006C0C3
:1051080006F012000750D8B48CEF28F08EEF28F084
:1051180096EF28F00750D8A494EF28F096EF28F0DF
:105128009BEF28F0055087EC2AF0DBEF28F00750BA
:10513800D96EDA6A090ED926DE50DE10D8B4A7EF88
:1051480028F0A9EF28F0C2EF28F00750D96EDA6AE4
:10515800090ED9260750E16EE26A020EE126DE50FA
:10516800E65CE650800A0C6EDE50800A0C58D8B017
:10517800C0EF28F0C2EF28F0DBEF28F00750D96E17
:10518800DA6A020ED926DF50086E0750D96EDA6A3D
:10519800DF500824D96EDA6A600017F0DFFF075085
:1051A800D96EDA6A020ED926DE2A000EDD22120036
:1051B800F7EF28F0600033F0F6FF600037F0F7FFF4
:1051C800000EF86E1F0EF76403D00800F55007D0E4
:1051D8006F00DBFFE1FF6F00DFFFE2FFE75069ECE4
:1051E8002AF00C4A0D2A600033F0F6FF600037F011
:1051F800F7FF000EF86E1F0EF76403D00800F55095
:1052080007D06F00DBFFE1FF6F00DFFFE2FFE75031
:105218000009D8A412EF29F014EF29F0DEEF28F0E6
:02522800120072
:10522C003A0167A51CEF29F01EEF29F04EEF29F08B
:10523C00000E046E000E036EBC86020E026E450E4E
:10524C00016EAA0EE82EFED7012EFCD7022EFAD73D
:10525C00BC96020E026E450E016EAA0EE82EFED70B
:10526C00012EFCD7022EFAD7034A042A04BE48EFBB
:10527C0029F0045009E1140E035CD8A048EF29F082
:10528C004AEF29F022EF29F03A0167953901A09FE6
:10529C001100000E086E000E076E57EF29F0074A3A
:1052AC00082A05500724D96EDA6ADF50D8A461EFBA
:1052BC0029F063EF29F055EF29F068EF29F0074A40
:1052CC00082A062A60001BF0F6FF200EF76E055028
:1052DC000724D96EDA6A08006F00D7FFDFFFDF50B2
:1052EC00D8A47BEF29F07DEF29F065EF29F01200AF
:1052FC00000E086E000E076E97EF29F0000E0A6E76
:10530C00000E096E094A0A2A0A5009E1A50E095C29
:10531C00D8A093EF29F095EF29F088EF29F0074AF0
:10532C00082A0550075C06500858D8A0A0EF29F0B1
:10533C00A2EF29F084EF29F012001BC01DF0AFEF93
:10534C0029F01AC00FF01D0E106E1CC011F0D9EC14
:10535C0024F0600077F0F6FF200EF76E0800F55091
:10536C000009D8A4BCEF29F0BEEF29F0A7EF29F073
:10537C00000E1B6E000E1A6E1200116E020E1160E2
:10538C00CAEF29F0CCEF29F0D5EF29F00E500F0B16
:10539C008009126E125078EC2AF0DCEF29F00E50D6
:1053AC000F0BC009126E125078EC2AF00FC00CF0E3
:1053BC0010C00DF0DCEC28F01200200E226E1EC086
:1053CC0023F0000E266E000E256E000E2D6E000EC4
:1053DC002C6E230E1A6E1FC01BF0220E1C6EA3EC3B
:1053EC0029F01E502524D96EDA6ADF6A12000CBE31
:1053FC0002EF2AF004EF2AF00AEF2AF00BC00BF0B0
:10540C000CC00CF016EF2AF00BC00DF00CC00EF017
:10541C000D1E0E1E0D4A0E2A0DC00BF00EC00CF008
:10542C00120000EE60F0200EEE6AE806FDE100EEE0
:10543C0046F0150EEE6AE806FDE1080ED56E400E3C
:10544C00D66E000ED76E000EF86E000195EF26F0AA
:10545C00010E066EF40E056E7EEC29F0C36AC56A69
:10546C00010E78EC2AF0380E78EC2AF00C0E78EC61
:10547C002AF0060E78EC2AF012003E01F851F30BDC
:10548C000409F86FF889C2803A0140813E01F16B42
:10549C00FF6BF06BEF6BF66BF76BF36BF46BF88FDA
:1054AC001200C4843A01609561856595668567959F
:1054BC003901A09F908FD28ED29AD76A400ED66EA9
:1054CC00080ED56E12000B6E60002FF0BBFFBD8076
:1054DC00BD820000BD92000E066E010E056E7EECC4
:1054EC0029F012000B6E60002FF0BBFFBD90BD8247
:1054FC000000BD92000E066E030E056E7EEC29F0C8
:04550C001200120077
:020000040030CA
:0A000000F8FFFFFF9FFFFFFFFFFF67
:00000001FF
