:0400000057EF20F0A6
:1020000000566F6C746167653A00252E3266006970
:0B2010006E66006E616E00205600003E
:104008002B102B102B102B102B102B102B10DE1815
:104018002B102B102B102B102B102B102B102B10C0
:104028002B102B102B102B102B102B102B102B10B0
:104038002B102B102B102B102B102B102B102B10A0
:104048002B102B102B102B102B102B102B102B1090
:104058002B102B102B102B102B102B102B102B1080
:104068002B102B102B102B102B102B102B102B1070
:104078002B102B102B102B102B102B102B102B1060
:104088002B102B102B102B102B102B102B102B1050
:104098002B102B102B102B102B102B102B102B1040
:1040A8002B102B10FF00B2EF33F00001E36B3AC086
:1040B800E4F03BC0E5F03CC0E6F03DC0E7F0E7BF08
:1040C8006AEF20F068EF20F07EEF20F0010EE36F3A
:1040D800E4C005F0E5C006F0E6C007F0E7C008F068
:1040E80096EC33F005C0E4F006C0E5F007C0E6F052
:1040F80008C0E7F0000E0001E96F000EE86F64C029
:10410800D3F065C0D4F0E351D8B48DEF20F08FEF31
:1041180020F0A3EF20F0E351D8A495EF20F097EF1B
:1041280020F09DEF20F0000EC96F2B0EC86FA1EF95
:1041380020F0000EC96F2D0EC86FC8C0E3F0E4C0B0
:1041480005F0E5C006F0E6C007F0E7C008F075EC3A
:104158002FF005040610D8A4B4EF20F0B6EF20F035
:10416800E2EF20F00001E351D8B4BDEF20F0BFEF3B
:1041780020F0C8EF20F0E3C068F0D307D8A0D40738
:10418800000EE96F010EE86FE851680F056E0F0E1B
:10419800066E79EC33F00001FD0ED327FF0ED42311
:1041A80038C014F039C015F0680E166ED3C017F079
:1041B800D4C018F0F5EC31F02EEF25F0E4C005F08E
:1041C800E5C006F0E6C007F0E7C008F075EC2FF090
:1041D80005500610D8A4F3EF20F0F5EF20F010EF0B
:1041E80021F00001E351D8B4FCEF20F0FEEF20F0FD
:1041F80007EF21F0E3C068F0D307D8A0D407000E7A
:10420800E96F010EE86FE851680F056E130E066E30
:1042180079EC33F0CFEF20F0000E0001EA6F000ECA
:10422800EB6F800EEC6F3F0EED6F000ED26F000E3D
:10423800D16FE4C005F0E5C006F0E6C007F0E7C0BE
:1042480008F0000E096E000E0A6E000E0B6E000ECE
:104258000C6E2DEC31F0D8B034EF21F036EF21F0B0
:1042680015EF22F043EF21F0D5C0EAF0D6C0EBF00D
:10427800D7C0ECF0D8C0EDF00001D14BD22BEAC08A
:1042880013F0EBC014F0ECC015F0EDC016F0000E02
:10429800176E000E186E200E196E410E1A6E8AECFB
:1042A80027F013C0D5F014C0D6F015C0D7F016C04B
:1042B800D8F00001D551E45D056ED651E559066E7A
:1042C800D751E659076ED851E759086E5BEC32F0C2
:1042D80008BE7AEF21F008500710061009E1020E17
:1042E800055CD8A07AEF21F07CEF21F038EF21F0BF
:1042F800D5C02CF0D6C02DF0D7C02EF0D8C02FF0E6
:10430800E4C030F0E5C031F0E6C032F0E7C033F089
:10431800F3EC2EF0D8A093EF21F095EF21F038EFD1
:1043280021F00001EA51E45D056EEB51E559066E96
:10433800EC51E659076EED51E759086E5BEC32F027
:1043480008BEB4EF21F008500710061007E1020E6E
:10435800055CD8B0B2EF21F0B4EF21F0FCEF21F00A
:10436800EAC0E4F0EBC0E5F0ECC0E6F0EDC0E7F041
:1043780015EF22F0EAC005F0EBC006F0ECC007F03C
:10438800EDC008F0000E096E000E0A6E200E0B6ECE
:10439800410E0C6EAFEC29F005C0EAF006C0EBF058
:1043A80007C0ECF008C0EDF00001D107D8A0D20793
:1043B800EA51E45D056EEB51E559066EEC51E6599C
:1043C800076EED51E759086E5BEC32F008BEFAEF64
:1043D80021F008500710061007E1020E055CD8B05E
:1043E800F8EF21F0FAEF21F0FCEF21F0B4EF21F023
:1043F800E4C02CF0E5C02DF0E6C02EF0E7C02FF0A9
:10440800EAC030F0EBC031F0ECC032F0EDC033F070
:10441800F3EC2EF0D8A013EF22F015EF22F0BEEF48
:1044280021F03EC0CBF0CBC0CCF0000167BF1FEF3E
:1044380022F021EF22F027EF22F066C0C4F067C017
:10444800C5F02BEF22F0000EC56F060EC46FC4C076
:10445800CFF0C5C0D0F0CF4BD02B660ECC19D8A466
:1044680038EF22F03AEF22F05AEF22F0D2BF41EFB4
:1044780022F03FEF22F04DEF22F0000EEA6F000E1F
:10448800EB6F800EEC6F3F0EED6F000ED26F000EDB
:10449800D16F670ECB19D8B454EF22F056EF22F043
:1044A8005AEF22F0D151CF27D251D023000EDA6F24
:1044B800000ED96FE4C0DBF0E5C0DCF0E6C0DDF04B
:1044C800E7C0DEF0EAC0D5F0EBC0D6F0ECC0D7F01C
:1044D800EDC0D8F0EBEF22F0DBC005F0DCC006F051
:1044E800DDC007F0DEC008F0EAC009F0EBC00AF052
:1044F800ECC00BF0EDC00CF0AFEC29F005C01EF0DD
:1045080006C01FF007C020F008C021F08DEC2CF089
:104518001EC0DFF01FC0E0F020C0E1F021C0E2F0D3
:10452800DFC005F0E0C006F0E1C007F0E2C008F027
:1045380070EC2EF005C0CDF006C0CEF0DBC02CF03C
:10454800DCC02DF0DDC02EF0DEC02FF0DFC017F08C
:10455800E0C018F0E1C019F0E2C01AF0EAC013F0A8
:10456800EBC014F0ECC015F0EDC016F08AEC27F0A3
:1045780013C030F014C031F015C032F016C033F05B
:10458800D3EC32F02CC0DBF02DC0DCF02EC0DDF017
:104598002FC0DEF0EAC005F0EBC006F0ECC007F073
:1045A800EDC008F0000E096E000E0A6E200E0B6EAC
:1045B800410E0C6EAFEC29F005C0EAF006C0EBF036
:1045C80007C0ECF008C0EDF00001D94BDA2BCF5151
:1045D800D95DDA51800A3F6ED051800A3F58D8A081
:1045E800F8EF22F0FAEF22F070EF22F0EAC013F0B1
:1045F800EBC014F0ECC015F0EDC016F0000E176E0D
:10460800000E186EA00E196E400E1A6E8AEC27F076
:1046180013C0DFF014C0E0F015C0E1F016C0E2F0FE
:10462800DBC02CF0DCC02DF0DDC02EF0DEC02FF09A
:10463800DFC030F0E0C031F0E1C032F0E2C033F06A
:10464800F3EC2EF0D8B02BEF23F02DEF23F038EF5A
:1046580023F0000E0001DF6F000EE06F000EE16F27
:10466800000EE26F61EF23F0DBC005F0DCC006F05E
:10467800DDC007F0DEC008F0DFC009F0E0C00AF0D6
:10468800E1C00BF0E2C00CF02DEC31F0D8A04FEFF8
:1046980023F051EF23F061EF23F00001CDB157EF84
:1046A80023F059EF23F061EF23F0000EDF6F000EC7
:1046B800E06F000EE16F000EE26FE4C005F0E5C0A8
:1046C80006F0E6C007F0E7C008F0DFC009F0E0C078
:1046D8000AF0E1C00BF0E2C00CF02FEC25F005C0A9
:1046E800DBF006C0DCF007C0DDF008C0DEF0DBC0A0
:1046F8002CF0DCC02DF0DDC02EF0DEC02FF0000E57
:10470800176E000E186E200E196E410E1A6ED5C067
:1047180013F0D6C014F0D7C015F0D8C016F08AEC44
:1047280027F013C030F014C031F015C032F016C0B5
:1047380033F0F3EC2EF0D8A0A4EF23F0A6EF23F08B
:10474800CFEF23F00001D14BD22BD5C013F0D6C048
:1047580014F0D7C015F0D8C016F0000E176E000E72
:10476800186E200E196E410E1A6E8AEC27F013C0CF
:10477800D5F014C0D6F015C0D7F016C0D8F0660E24
:104788000001CC19D8A4CBEF23F0CDEF23F0CFEF65
:1047980023F0CF4BD02BD5C0EAF0D6C0EBF0D7C072
:1047A800ECF0D8C0EDF0D1C0C2F0D2C0C3F0000127
:1047B800CA6B000EC76F000EC66F000EDA6F000ED0
:1047C800D96FC6EF24F0DBC005F0DCC006F0DDC011
:1047D80007F0DEC008F0EAC009F0EBC00AF0ECC050
:1047E8000BF0EDC00CF0AFEC29F005C01EF006C0D0
:1047F8001FF007C020F008C021F08DEC2CF01EC07F
:10480800DFF01FC0E0F020C0E1F021C0E2F0DFC01F
:1048180005F0E0C006F0E1C007F0E2C008F070EC77
:104828002EF006BE23EF24F0065007E10A0E055CC1
:10483800D8B021EF24F023EF24F033EF24F0DFC0C9
:1048480005F0E0C006F0E1C007F0E2C008F070EC47
:104858002EF005C0CDF006C0CEF038EF24F0000EE3
:104868000001CE6F090ECD6F0001CA51D8A43FEFE9
:1048780024F041EF24F065EF24F0C3BF48EF24F0A3
:1048880046EF24F065EF24F0E851680FD96EDA6A34
:104898002E0EDF6EE84BE92BD307D8A0D407010E04
:1048A800CA6F65EF24F0E851680FD96EDA6A300EE6
:1048B800DF6EE84BE92BD307D8A0D407C607D8A0EA
:1048C800C707C651C711D8A46CEF24F06EEF24F0C7
:1048D80057EF24F0E851680FD96EDA6ACD51300FDE
:1048E800DF6EE84BE92BD307D8A0D407DBC02CF048
:1048F800DCC02DF0DDC02EF0DEC02FF0DFC017F0D9
:10490800E0C018F0E1C019F0E2C01AF0EAC013F0F4
:10491800EBC014F0ECC015F0EDC016F08AEC27F0EF
:1049280013C030F014C031F015C032F016C033F0A7
:10493800D3EC32F02CC0DBF02DC0DCF02EC0DDF063
:104948002FC0DEF0EAC005F0EBC006F0ECC007F0BF
:10495800EDC008F0000E096E000E0A6E200E0B6EF8
:10496800410E0C6EAFEC29F005C0EAF006C0EBF082
:1049780007C0ECF008C0EDF00001C207D8A0C307DB
:10498800D94BDA2BCF51D95DDA51800A3F6ED0511D
:10499800800A3F58D8B0D3EF24F0D5EF24F0E3EFE6
:1049A80024F0E9BFE1EF24F0E95109E14B0EE85D9D
:1049B800D8A0E1EF24F0E3EF24F0E7EF23F0000EB6
:1049C800DA6F4F0ED96FD951680FD96EDA6ADF6A7C
:1049D800E8516808D925056E680E066EE8C007F02C
:1049E800E9C008F018EC33F00001E851D95DE86F30
:1049F800E951DA59E96FE351D8A405EF25F008EF3A
:104A080025F0010E09EF25F0000ED96FDA6BE3519E
:104A1800D8B411EF25F013EF25F01DEF25F0E807C6
:104A2800D8A0E907E851680FD96EDA6A60008FF3F9
:104A3800DFFFD951D35FDA51D45B38C014F039C0E5
:104A480015F0E851680F166ED3C017F0D4C018F0EF
:104A5800F5EC31F012000850800B116E0850082454
:104A6800136E07AE3AEF25F03CEF25F03DEF25F049
:104A780013801350D8B443EF25F045EF25F059EFD4
:104A880025F01328D8A44BEF25F04DEF25F055EF6E
:104A980025F0000E056E000E066E000E076E000E65
:104AA800086E078E086A61EF25F0000E056E000E8D
:104AB800066E000E076E000E086E0C50800B126E0C
:104AC80011501218D8B46BEF25F06DEF25F06EEF8A
:104AD80025F0118C0C500C24126E0BAE76EF25F0DD
:104AE80078EF25F079EF25F012801250D8B47FEFD7
:104AF80025F081EF25F095EF25F01228D8A487EF4F
:104B080025F089EF25F091EF25F0000E096E000ED3
:104B18000A6E000E0B6E000E0C6E0B8E0C6A9DEF6B
:104B280025F0000E096E000E0A6E000E0B6E000EC8
:104B38000C6E1350125CD8B0A4EF25F0A6EF25F048
:104B4800CDEF25F011ACABEF25F0ADEF25F0AFEFD1
:104B580025F0800E111A13C014F012C013F014C0FF
:104B680012F005C014F009C005F014C009F006C021
:104B780014F00AC006F014C00AF007C014F00BC005
:104B880007F014C00BF008C014F00CC008F014C0F3
:104B98000CF0146A135012C00DF00E6A0D5E000E70
:104BA8000E5A0EBEE1EF25F00E5009E11A0E0D5C0B
:104BB800D8A0E1EF25F0E3EF25F01AEF26F0055035
:104BC800061007100810D8A4ECEF25F0EFEF25F039
:104BD800010EF0EF25F0000E146E000E056E000EAB
:104BE800066E000E076E000E086E12C013F023EF5B
:104BF80026F014A002EF26F004EF26F00AEF26F0C4
:104C0800D89014300109146E0CEF26F0D8901432A5
:104C180005A011EF26F013EF26F014EF26F0148EFE
:104C280008340832073206320532132A1250135C50
:104C3800D8A021EF26F023EF26F0FDEF25F011BCD8
:104C480028EF26F02AEF26F06AEF26F01350D8A4B2
:104C580030EF26F032EF26F03CEF26F0000E056E1E
:104C6800000E066E000E076E000E086E89EF27F024
:104C7800095005260A5006220B5007220C5008221C
:104C880008A049EF26F04BEF26F0F7EF26F014A026
:104C980050EF26F052EF26F058EF26F0D890143057
:104CA8000109146E5AEF26F0D890143205A05FEF70
:104CB80026F061EF26F062EF26F0148E08340832F1
:104CC800073206320532132AF7EF26F00950055C41
:104CD8000A5006580B5007580850800A0D6E0C50A1
:104CE800800A0D58D8B07BEF26F07DEF26F0A8EFAC
:104CF80026F00550095C0D6E06500A580E6E0750D6
:104D08000B580F6E08500C58106EFF0E0D24056ED0
:104D1800FF0E0E20066EFF0E0F20076EFF0E1020EE
:104D2800086E800E111A146C1450D8A49EEF26F049
:104D3800A0EF26F0B0EF26F0010E0526000E0622A1
:104D480007220822B0EF26F00950055E0A50065ADD
:104D58000B50075A0C50085A055006100710081037
:104D6800D8A4B9EF26F0BBEF26F0F0EF26F01450E8
:104D7800D8A4C1EF26F0C3EF26F0F0EF26F0000E1E
:104D8800056E000E066E000E076E000E086E89EFA7
:104D980027F0D890053606360736083614AED7EF12
:104DA80026F0D9EF26F0DAEF26F0058014A0DFEF21
:104DB80026F0E1EF26F0E5EF26F0D8801436E7EF8D
:104DC80026F0D89014361350D8B4EDEF26F0EFEF54
:104DD80026F0F0EF26F0130607AEF5EF26F0F7EF12
:104DE80026F0CDEF26F0126A14AEFDEF26F0FFEFA5
:104DF80026F017EF27F014C00DF07F0E0D16D8B46B
:104E080008EF27F00AEF27F00EEF27F0010E126ED9
:104E180017EF27F005A013EF27F015EF27F017EF8E
:104E280027F00AEF27F01250D8B41DEF27F01FEF34
:104E380027F04AEF27F0010E0526000E062207226A
:104E4800082208A02AEF27F02CEF27F04AEF27F0D6
:104E580005C00DF006C00EF007C00FF008C010F036
:104E6800103410320F320E320D320DC005F00EC064
:104E780006F00FC007F010C008F01328D8B447EFA9
:104E880027F049EF27F04AEF27F0132A1328D8B460
:104E980050EF27F052EF27F05AEF27F01350D8A41D
:104EA80058EF27F05AEF27F06BEF27F0000E056E4A
:104EB800000E066E000E076E000E086E1350D8A482
:104EC80068EF27F06AEF27F06BEF27F0116A13A05D
:104ED80070EF27F072EF27F075EF27F0078E76EF67
:104EE80027F0079ED8901330086E11AE7EEF27F09A
:104EF80080EF27F081EF27F0088E05C005F006C087
:104F080006F007C007F008C008F012001650800B22
:104F18001F6E16501624256E15AE95EF27F097EFE5
:104F280027F098EF27F025802550D8B49EEF27F07A
:104F3800A0EF27F0B3EF27F02528D8A4A6EF27F095
:104F4800A8EF27F0B0EF27F0000E136E000E146ED6
:104F5800000E156E000E166E158EBBEF27F0000EB4
:104F6800136E000E146E000E156E000E166E1A509B
:104F7800800B1F1A1A501A24206E19AEC6EF27F09C
:104F8800C8EF27F0C9EF27F020802050D8B4CFEF22
:104F980027F0D1EF27F0E4EF27F02028D8A4D7EFA7
:104FA80027F0D9EF27F0E1EF27F0000E176E000E7B
:104FB800186E000E196E000E1A6E198EECEF27F09F
:104FC800000E176E000E186E000E196E000E1A6E87
:104FD8002050D8B4F2EF27F0F4EF27F0FCEF27F0D9
:104FE8002550D8A4FAEF27F0FCEF27F006EF28F0B9
:104FF800000E136E000E146E000E156E000E166E67
:10500800AEEF29F0195013026F00CCFF2AF06F00A1
:10501800D0FF2BF02A50216E226A236A246A2B5073
:10502800266E276A286A296A185014026F00CCFF76
:105038002AF06F00D0FF2BF02A502126000E2222E2
:10504800232224222B502626000E2722282229221A
:10505800175015026F00CCFF2AF06F00D0FF2BF01D
:105068002A502126000E2222232224222B502626D3
:10507800000E27222822292223C024F022C023F050
:1050880021C022F0216A175014026F00CCFF2AF0C9
:105098006F00D0FF2BF02A5021262B502222000E21
:1050A8002322000E2422185013026F00CCFF2AF08E
:1050B8006F00D0FF2BF02A5021262B502222000E01
:1050C8002322000E242223C024F022C023F021C072
:1050D80022F0216A175013026F00CCFF2AF06F00EC
:1050E800D0FF2BF02A5021262B502222000E2322FB
:1050F800000E2422195014026F00CCFF2AF06F0012
:10510800D0FF2BF02A5026262B502722000E2822CB
:10511800000E2922185015026F00CCFF2AF06F00EC
:10512800D0FF2BF02A5026262B502722000E2822AB
:10513800000E2922195015026F00CCFF2AF06F00CB
:10514800D0FF2BF02A501B6E2B501C6E1D6A1E6A56
:105158001DC01EF01CC01DF01BC01CF01B6A1B509C
:1051680026261C5027221D5028221E50292221C0E5
:105178001BF022C01CF023C01DF024C01EF0190E25
:10518800CBEF28F0D8901E321D321C321B32E82E8D
:10519800C6EF28F01B5026261C5027221D50282217
:1051A8001E50292223C024F022C023F021C022F05F
:1051B800216A205025C01BF01C6A1B26000E1C22E9
:1051C800820E1B242A6EFF0E1C202B6E01EF29F085
:1051D800D890263627362836293624AEF6EF28F01A
:1051E800F8EF28F0F9EF28F02680D89021362236FB
:1051F800233624362A06D8A02B0628AE06EF29F037
:1052080008EF29F0ECEF28F0206A24AE0EEF29F021
:1052180010EF29F034EF29F0FF0E21141B6EFF0E5A
:1052280022141C6EFF0E23141D6E7F0E24141E6E96
:105238001B501C101D101E10D8B425EF29F027EFA5
:1052480029F02BEF29F0010E206E34EF29F026A06B
:1052580030EF29F032EF29F034EF29F027EF29F069
:105268002050D8B43AEF29F03CEF29F060EF29F04C
:10527800010E2626000E27222822292229A047EFE0
:1052880029F049EF29F060EF29F026C01BF027C06C
:105298001CF028C01DF029C01EF01E341E321D321D
:1052A8001C321B321BC026F01CC027F01DC028F082
:1052B8001EC029F02A4A2B2A2BBE6BEF29F02B504F
:1052C80008E12A28D8A06BEF29F06DEF29F077EFD5
:1052D80029F0000E266E000E276E800E286E7F0EB7
:1052E800296EA4EF29F02BBE84EF29F02B5006E19C
:1052F8002A04D8B082EF29F084EF29F08FEF29F043
:10530800000E266E000E276E000E286E000E296E07
:105318001F6AA4EF29F02AC025F0FF0E2616FF0EFB
:1053280027167F0E2816000E291625A09EEF29F0B5
:10533800A0EF29F0A1EF29F0288ED8902530296E0A
:105348001F50291226C013F027C014F028C015F0EA
:1053580029C016F012000850800B156E085008245A
:105368001C6E07AEBAEF29F0BCEF29F0BDEF29F0AB
:105378001C801C50D8B4C3EF29F0C5EF29F0D9EF31
:1053880029F01C28D8A4CBEF29F0CDEF29F0D5EFD0
:1053980029F0000E056E000E066E000E076E000E58
:1053A800086E078E086AE1EF29F0000E056E000E00
:1053B800066E000E076E000E086E0C50800B151A54
:1053C8000C500C241D6E0BAEECEF29F0EEEF29F01B
:1053D800EFEF29F01D801D50D8B4F5EF29F0F7EF55
:1053E80029F00BEF2AF01D28D8A4FDEF29F0FFEFD4
:1053F80029F007EF2AF0000E096E000E0A6E000E63
:105408000B6E000E0C6E0B8E0C6A13EF2AF0000E5A
:10541800096E000E0A6E000E0B6E000E0C6E09501F
:105428000A100B100C10D8A41CEF2AF01EEF2AF05B
:1054380036EF2AF0000E056E000E066E000E076E9F
:10544800000E086E800E07127F0E08121550081203
:1054580005C005F006C006F007C007F008C008F050
:1054680076EF2BF01C50D8A43CEF2AF03EEF2AF040
:1054780048EF2AF0000E056E000E066E000E076E4D
:10548800000E086E76EF2BF01D501CC00DF00E6A52
:105498000D5E000E0E5A7F0E0D24166E000E0E20A5
:1054A800176E05C011F006C012F007C013F008C04F
:1054B80014F0000E056E000E066E000E076E000E4C
:1054C800086E000E186E000E196E000E1A6E000E91
:1054D8001B6E1D6AA8EF2AF01D50D8B476EF2AF08B
:1054E80078EF2AF08FEF2AF0D8901136123613365B
:1054F8001436D89005360636073608361BAE87EFC1
:105508002AF089EF2AF08AEF2AF00580D890183619
:1055180019361A361B360950115C0A5012580B50AE
:1055280013580C501458D8A09CEF2AF09EEF2AF07C
:10553800A7EF2AF01B8C0950115E0A50125A0B5023
:10554800135A0C50145A1D2A190E1D64AEEF2AF076
:10555800B0EF2AF070EF2AF0115012101310141047
:10556800D8B4B9EF2AF0BBEF2AF0D3EF2AF01880AD
:10557800D3EF2AF0D89005360636073608361BAE24
:10558800C8EF2AF0CAEF2AF0CBEF2AF00580D890AE
:10559800183619361A361B361606D8A0170607AE5F
:1055A800D8EF2AF0DAEF2AF0BEEF2AF01D6A1BAE18
:1055B800E0EF2AF0E2EF2AF006EF2BF0FF0E1814C6
:1055C8000D6EFF0E19140E6EFF0E1A140F6E7F0E5D
:1055D8001B14106E0D500E100F101010D8B4F7EFEA
:1055E8002AF0F9EF2AF0FDEF2AF0010E1D6E06EF02
:1055F8002BF005A002EF2BF004EF2BF006EF2BF0B9
:10560800F9EF2AF01D50D8B40CEF2BF00EEF2BF069
:1056180032EF2BF0010E0526000E06220722082283
:1056280008A019EF2BF01BEF2BF032EF2BF005C081
:105638000DF006C00EF007C00FF008C010F01034CF
:1056480010320F320E320D320DC005F00EC006F0CA
:105658000FC007F010C008F0164A172A17BE3DEF12
:105668002BF0175008E11628D8A03DEF2BF03FEF9C
:105678002BF04AEF2BF0000E176E1668000E056E21
:10568800000E066E000E076E000E086E17BE57EF6E
:105698002BF0175006E11604D8B055EF2BF057EF52
:1056A8002BF064EF2BF0000E176E000E166E000E36
:1056B800056E000E066E000E076E000E086E156A67
:1056C80016C01CF01CA06BEF2BF06DEF2BF070EFE9
:1056D8002BF0078E71EF2BF0079ED8901C30086EC8
:1056E8002AEF2AF012000001F051D96EDA6A6F0031
:1056F8007FFFF6FF200EF76E000EF86E0800F550DB
:10570800250AD8A48AEF2BF08CEF2BF076EF2CF03B
:10571800F051D96EDA6ADF2A000E656F000E646FE9
:1057280064C054F066696769F051D96EDA6A6F002F
:105738007FFFF6FF200EF76E000EF86E0800F5509A
:105748002E0AD8A4AAEF2BF0ACEF2BF0BCEF2BF06D
:10575800F051D96EDA6ADF2AF0C005F0F1C006F020
:10576800F2C007F0CEEC30F005C066F006C067F076
:105778000001F051D96EDA6ADF50466E60001BF105
:10578800F6FF200EF76E000EF86E08006F00D4FFCB
:1057980045F0D9EF2BF0462AE8EF2BF06C0E456E5A
:1057A800E8EF2BF0456AE8EF2BF045504C0AD8B4E7
:1057B800CFEF2BF02A0AD8B4D2EF2BF00A0AD8B4CC
:1057C800CFEF2BF0D6EF2BF060001BF1F6FF200E89
:1057D800F76E000EF86E0800F550660AD8A4F7EFC9
:1057E8002BF0F9EF2BF06FEF2CF033EF2CF060007B
:1057F800C7F3D9FF6000CBF3DAFF6F007CFF40F0FE
:10580800040EDF264050D96EDA6A6F0078FF41F047
:105818006F0078FF42F06F0078FF43F06F0078FF69
:1058280044F03EEF2CF06000C7F3D9FF6000CBF3E3
:10583800DAFF6F007CFF40F0040EDF264050D96E7F
:10584800DA6A6F0078FF41F06F0078FF42F06F006E
:1058580078FF43F06F0078FF44F03EEF2CF045509E
:105868004C0AD8B417EF2CF0200AD8B4FBEF2BF071
:105878003EEF2CF0F051D96EDA6A4628DF6E60EF01
:105888002CF0EEC038F0EFC039F041C03AF042C019
:105898003BF043C03CF044C03DF060001BF1F6FF14
:1058A800200EF76E000EF86E08006F00D4FF3EF071
:1058B80059EC20F08CEF2CF060001BF1F6FF200E65
:1058C800F76E000EF86E0800F550660AD8B445EF7A
:1058D8002CF06FEF2CF00001F051D96EDA6ADF2A54
:1058E8008CEF2CF0F051D96EDA6A6F007FFFF6FF6B
:1058F800200EF76E000EF86E0800F550056E066A69
:10590800EEC007F0EFC008F06EEC30F06FEF2CF04F
:10591800120060C02EF061C02FF062C030F063C08A
:1059280031F01EC02EF01FC02FF020C030F021C073
:1059380031F0810E226EFF0E236E2EC024F02FC090
:1059480025F030C026F031C027F0180EB1EF2CF04A
:10595800D8902732263225322432E82EACEF2CF0AC
:10596800245022242C6E000E23202D6E2DBEC6EF4F
:105978002CF02D5009E1170E2C5CD8A0C6EF2CF0A6
:10598800C8EF2CF0D2EF2CF01EC01EF01FC01FF085
:1059980020C020F021C021F095EF2DF02DBED7EFCB
:1059A8002CF0D9EF2CF049EF2DF02CC022F0FF0E8F
:1059B800236EFF0E246E7F0E256E000E266E226665
:1059C800E8EF2CF0F0EF2CF0263426322532243282
:1059D8002332222EE3EF2CF023C028F024C029F034
:1059E80025C02AF026C02BF028502E14226E2950EC
:1059F8002F14236E2A503014246E2B503114256E28
:105A08002250231024102510D8A40DEF2DF00FEFED
:105A18002DF011EF2DF0C8EF2CF02EC022F02FC082
:105A280023F030C024F031C025F0200E21EF2DF0F6
:105A3800D8902532243223322232E82E1CEF2DF062
:105A48002250231024102510D8B42DEF2DF02FEF5D
:105A58002DF037EF2DF028502E2629502F222A50CE
:105A680030222B503122281C226E291C236E2A1C1E
:105A7800246E2B1C256E22502E1623502F162450D0
:105A88003016255031168DEF2DF02EC022F02FC084
:105A980023F030C024F031C025F0200E59EF2DF04E
:105AA800D8902532243223322232E82E54EF2DF0BA
:105AB8002250231024102510D8A465EF2DF067EF8D
:105AC8002DF071EF2DF0000E2E6E000E2F6E000ED1
:105AD800306E000E316E8DEF2DF0D8902E34226E80
:105AE8002F34236E3034246E3134256E2250231027
:105AF80024102510D8B483EF2DF085EF2DF08DEF0D
:105B08002DF0000E2E6E000E2F6E800E306EBF0E22
:105B1800316E2EC01EF02FC01FF030C020F031C0F3
:105B280021F012000D6E0D50D8B49DEF2DF09FEFAF
:105B38002DF0C1EF2DF008BEA6EF2DF0A4EF2DF04B
:105B4800C1EF2DF005C009F006C00AF007C00BF040
:105B580008C00CF0091E0A1E0B1E0C1E092A000E96
:105B68000A220B220C2209C00FF00AC010F00BC049
:105B780011F00CC012F0C9EF2DF005C00FF006C0EF
:105B880010F007C011F008C012F0055006100710F9
:105B98000810D8A4D2EF2DF0D4EF2DF0DEEF2DF0C1
:105BA800000E056E000E066E000E076E000E086EE3
:105BB8006FEF2EF0960E0E6EE8EF2DF00E2AD890AD
:105BC8001232113210320F32000E0F14096E000E0D
:105BD80010140A6E000E11140B6EFE0E12140C6EC9
:105BE80009500A100B100C10D8A4FDEF2DF0FFEF90
:105BF8002DF0E2EF2DF00DEF2EF00E2A010E0F26FC
:105C0800000E102211221222D890123211321032B4
:105C18000F32000E0F14096E000E10140A6E000EDB
:105C280011140B6EFF0E12140C6E09500A100B1093
:105C38000C10D8A422EF2EF024EF2EF001EF2EF056
:105C48002CEF2EF00E06D8900F361036113612367D
:105C580011BE31EF2EF033EF2EF03BEF2EF0020E97
:105C68000E6039EF2EF03BEF2EF026EF2EF00EB03F
:105C780040EF2EF042EF2EF043EF2EF0119ED89019
:105C88000E320EC009F00A6A0B6A0C6A09C00CF0E1
:105C98000B6A0A6A096A09500F120A5010120B504F
:105CA80011120C5012120D50D8B45DEF2EF05FEFA8
:105CB8002EF067EF2EF008BE66EF2EF064EF2EF0A0
:105CC80067EF2EF0128E0FC005F010C006F011C05D
:105CD80007F012C008F01200073408340E6E0E5098
:105CE800D8A479EF2EF07BEF2EF085EF2EF0000E82
:105CF800056E000E066E000E076E000E086EF2EFBF
:105D08002EF005C009F006C00AF007C00BF008C065
:105D18000CF0200E95EF2EF0D8900C320B320A3290
:105D28000932E82E90EF2EF009500D6E078EFF0E07
:105D38000516FF0E0616FF0E0716000E0816960E1D
:105D48000E5E0EBEACEF2EF0AAEF2EF0C2EF2EF0D4
:105D58000E50800A970FD8B0B4EF2EF0B6EF2EF0A1
:105D6800B8EF2EF07BEF2EF0D890083207320632CB
:105D780005320E3EB8EF2EF0DAEF2EF01F0E0E644D
:105D8800C8EF2EF0CAEF2EF0D2EF2EF07BEF2EF0F8
:105D9800D89005360636073608360E060E50D8A4B3
:105DA800D8EF2EF0DAEF2EF0CCEF2EF00D50D8B45D
:105DB800E0EF2EF0E2EF2EF0EAEF2EF0081E071EBD
:105DC800061E056C000E06220722082205C005F0F3
:105DD80006C006F007C007F008C008F01200000E61
:105DE8002C14346E000E2D14356E800E2E14366E63
:105DF8007F0E2F14376E3450351036103710D8A454
:105E080008EF2FF00AEF2FF012EF2FF0000E2C6E94
:105E1800000E2D6E000E2E6E000E2F6E000E30142A
:105E2800346E000E3114356E800E3214366E7F0ECD
:105E38003314376E3450351036103710D8A427EF86
:105E48002FF029EF2FF031EF2FF0000E306E000EFB
:105E5800316E000E326E000E336E2FAE36EF2FF01D
:105E680038EF2FF041EF2FF02C6C2D1ED8B02D2AD3
:105E78002E1ED8B02E2A800E2F5633AE46EF2FF0A6
:105E880048EF2FF051EF2FF0306C311ED8B0312A87
:105E9800321ED8B0322A800E3356000E2C1A000E4D
:105EA8002D1A000E2E1A800E2F1A000E301A000E10
:105EB800311A000E321A800E331A30502C5C3150D1
:105EC8002D5832502E5833502F58D8B06EEF2FF02F
:105ED80070EF2FF073EF2FF0D89074EF2FF0D88079
:105EE80012004AC00FF04BC010F04CC011F04DC06A
:105EF80012F005C00FF006C010F007C011F008C07E
:105F080012F00FC009F010C00AF011C00BF012C057
:105F18000CF0180E95EF2FF0D8900C320B320A3295
:105F28000932E82E90EF2FF009500D6E0E6A0D50D1
:105F38000E10D8A4A2EF2FF0A4EF2FF0C4EF2FF08B
:105F4800D8900F34096E10340A6E11340B6E123467
:105F58000C6E09500A100B100C10D8A4B6EF2FF0D5
:105F6800B8EF2FF0BEEF2FF0000E066E020E056E92
:105F7800F3EF2FF0000E066E030E056EF3EF2FF011
:105F88000D280E10D8A4CBEF2FF0CDEF2FF0EFEFA8
:105F98002FF00FC009F010C00AF011C00BF012C0AA
:105FA8000CF0090ED89009360A360B360C36E82E56
:105FB800D6EF2FF009500A100B100C10D8B4E7EFE9
:105FC8002FF0EAEF2FF0010EEBEF2FF0000E056E29
:105FD800066AF3EF2FF0000E066E040E056E12002F
:105FE800DCEC33F0C7EC33F0F0EC33F0C496BC963D
:105FF800000E0E6E010E0F6E0F50D8A4200E106EFC
:10600800010E59EC33F03E01F881F8B10EEF30F093
:1060180010EF30F009EF30F0EF516F00C0FB48F09F
:10602800496A48C049F0486A4810526E4950536E50
:1060380052C005F053C006F0000E06BEFF0E076EF4
:10604800086E010E96EC2DF005C013F006C014F092
:1060580007C015F008C016F0000E176E000E186E77
:10606800A00E196E3A0E1A6E8AEC27F013C04EF085
:1060780014C04FF015C050F016C051F0B80E000112
:10608800F86F0A0EF96F4EC0FAF04FC0FBF050C01F
:10609800FCF051C0FDF0F6EC32F0B80E056E170EAC
:1060A800066E2AEC32F0040E0E6EB80E0F6E106AF1
:1060B800020E59EC33F0030E496E8A0E486E560EE6
:1060C800E82EFED7482EFCD7492EFAD707EF30F036
:1060D80057EF20F007500810D8B475EF30F077EF7D
:1060E80030F080EF30F007500810D8A47EEF30F081
:1060F80080EF30F085EF30F0055020EC34F0CDEF34
:1061080030F020EE09F00750D9260850DA22DE5088
:10611800DE10D8B492EF30F094EF30F0AFEF30F0FB
:1061280020EE09F00750D9260850DA2210EE02F0C6
:106138000750E1260850E222DE50E65CE650800A6D
:106148000D6EDE50800A0D58D8B0ADEF30F0AFEFCD
:1061580030F0CDEF30F020EE02F00750D92608508D
:10616800DA22DF50096E60001FF0D9FF600023F0CB
:10617800DAFFDF500924D96EDA6A600017F0DFFF12
:1061880020EE02F00750D9260850DA22DE2A000E47
:10619800DD221200000E0C6E000E0B6E0550D96E3B
:1061A800DA6A6F007FFFF6FF200EF76E000EF86EBA
:1061B8000800F5502A0AD8A4E4EF30F0E6EF30F0F2
:1061C80012EF31F00550D96EDA6ADF2A60001BF051
:1061D800D9FF60001FF0DAFF020EDF26DF5CD96E00
:1061E800DA6A6F0078FF0BF06F0078FF0CF028EF89
:1061F80031F00A0E0B026F00CCFF08F06F00D0FFE1
:1062080009F00C02F35009260A5008240B6E000E00
:1062180009200C6E0550D96EDA6ADF2A0550D96E4E
:10622800DA6A6F007FFFF6FF200EF76E000EF86E39
:106238000800F550D00F0A6E090E0A6426EF31F0F7
:1062480028EF31F0FDEF30F00BC005F00CC006F080
:106258001200000E05140D6E000E06140E6E800E50
:1062680007140F6E7F0E0814106E0D500E100F10CD
:106278001010D8A442EF31F044EF31F04CEF31F078
:10628800000E056E000E066E000E076E000E086EFC
:10629800000E09140D6E000E0A140E6E800E0B14FB
:1062A8000F6E7F0E0C14106E0D500E100F10101084
:1062B800D8A461EF31F063EF31F06BEF31F0000EED
:1062C800096E000E0A6E000E0B6E000E0C6E095061
:1062D80005180FE10A5006180CE10B50071809E1E0
:1062E8000C500818D8B47BEF31F07DEF31F080EF17
:1062F80031F0D89081EF31F0D88012009DEF31F065
:10630800600033F0F6FF600037F0F7FF000EF86E1C
:106318001F0EF76403D00800F55007D06F00DBFFAD
:10632800E1FF6F00DFFFE2FFE75002EC34F00C4AB8
:106338000D2A600033F0F6FF600037F0F7FF000E1B
:10634800F86E1F0EF76403D00800F55007D06F00F1
:10635800DBFFE1FF6F00DFFFE2FFE7500009D8A491
:0E636800B8EF31F0BAEF31F084EF31F01200EF
:106378003A0167A5C2EF31F0C4EF31F0F4EF31F024
:10638800000E046E000E036EBC86020E026E450EF1
:10639800016EAA0EE82EFED7012EFCD7022EFAD7E0
:1063A800BC96020E026E450E016EAA0EE82EFED7AE
:1063B800012EFCD7022EFAD7034A042A04BEEEEFB8
:1063C80031F0045009E1140E035CD8A0EEEF31F06F
:1063D800F0EF31F0C8EF31F03A0167953901A09F2D
:1063E800110018BEFCEF31F0FAEF31F000EF32F097
:1063F800000E186E000E176E000E1B6E000E1A6E41
:1064080012EF32F0000E066E200E056E14C007F073
:1064180015C008F06EEC30F01A4A1B2A17501A5CA7
:106428001B50800A196E1850800A1958D8A01FEFFF
:1064380032F021EF32F006EF32F016C00EF014C041
:106448000FF015C010F039EC33F01200000E086E92
:10645800000E076E32EF32F0074A082A055007246B
:10646800D96EDA6ADF50D8A43CEF32F03EEF32F052
:1064780030EF32F043EF32F0074A082A062A60006C
:106488001BF0F6FF200EF76E000EF86E055007247D
:10649800D96EDA6A08006F00D7FFDFFFDF50D8A493
:1064A80058EF32F05AEF32F040EF32F0120008BEE7
:1064B80060EF32F062EF32F06CEF32F005C005F0B9
:1064C80006C006F007C007F008C008F085EF32F0F4
:1064D80005C009F006C00AF007C00BF008C00CF0B0
:1064E800091E0A1E0B1E0C1E092A000E0A220B2268
:1064F8000C2209C005F00AC006F00BC007F00CC05A
:1065080008F01200F5C047F097EF32F0F3C0EEF054
:10651800F4C0EFF0470E0001F06FF6C0F1F0F7C0DD
:10652800F2F077EC2BF060001FF1F6FF200EF76E0B
:10653800000EF86E0800F5500009D8A4A6EF32F056
:10654800A8EF32F08AEF32F0000E0001F46F000E6F
:10655800F36F1200000E086E000E076EC7EF32F0E0
:10656800000E0A6E000E096E094A0A2A0A5009E14D
:10657800A50E095CD8A0C3EF32F0C5EF32F0B8EF32
:1065880032F0074A082A0550075C06500858D8A078
:10659800D0EF32F0D2EF32F0B4EF32F01200000E4A
:1065A800301A000E311A000E321A800E331A2CC01F
:1065B80005F02DC006F02EC007F02FC008F030C03F
:1065C80009F031C00AF032C00BF033C00CF02FECE8
:1065D80025F005C02CF006C02DF007C02EF008C02D
:1065E8002FF01200FA0E0101006FF8C001F1000E41
:1065F800046F000E036F000E0B6F000E0A6F010E82
:106608000001F36F010EF46FF9C0F5F0000EF66F9C
:10661800010EF76F86EC32F00001F85101010325F5
:10662800D96EDA6ADF6A120006C00BF005C00AF0FC
:106638002BEF33F00B50D96EDA6ADF50096E0B2A54
:106648000A50D96EDA6A600027F0DFFF0A2A0706C7
:10665800D8A00806072806E10828D8A436EF33F0A2
:1066680038EF33F01EEF33F01200000E136E000EF9
:10667800126E4AEF33F011C005F0066A0FC007F03A
:1066880010C008F06EEC30F0124A132A0E50122493
:10669800D96EDA6ADF50116E1150D8A456EF33F074
:1066A80058EF33F03FEF33F01200116E020E116015
:1066B80060EF33F062EF33F06BEF33F00E500F0BF7
:1066C8008009126E125011EC34F072EF33F00E5054
:1066D8000F0BC009126E125011EC34F00FC00CF001
:1066E80010C00DF082EC31F0120005C008F0062A47
:1066F8000604076E60001FF0F6FF200EF76E000E0E
:10670800F86E082A0804D96EDA6A08006F00D7FF05
:10671800DFFFDF50D8A493EF33F095EF33F07BEF32
:1067280033F012000550061007100810D8B49FEF78
:1067380033F0A1EF33F0A9EF33F0000E051A000E85
:10674800061A000E071A800E081A05C005F006C0C2
:1067580006F007C007F008C008F0120000EE60F06D
:10676800620EEE6AE806FDE100EE4AF00B0EEE6AF4
:10677800E806FDE1080ED56E400ED66E000ED76E07
:106788000001F4EF2FF0010E066EF40E056EAEEC6C
:1067980032F0C36AC56A010E11EC34F0380E11EC00
:1067A80034F00C0E11EC34F0060E11EC34F012003B
:1067B8003E01F851F30B0409F86FF889C2803A01D9
:1067C80040813E01F16BFF6BF06BEF6BF66BF76B83
:1067D800F36BF46BF88F1200C4843A0160956185FD
:1067E8006595668567953901A09F908FD28ED29A5C
:1067F800D76A400ED66E080ED56E12000B6E60007A
:106808002FF0BBFFBD80BD820000BD92000E066E5A
:10681800010E056EAEEC32F012000B6E60002FF028
:10682800BBFFBD90BD820000BD92000E066E030E38
:0A683800056EAEEC32F01200120003
:020000040030CA
:0A000000F8FFFFFF9FFFFFFFFFFF67
:00000001FF
