:100100003F065B4F666D7D077F6F777C395E797147
:10020000F86A010EF76E000EF66E3F01CB6A3F01F1
:10021000BB6A3A01506B3F01000EC36E3F01CD6ACD
:100220003F01BD6A3A01706B3F01030EC56E0800C5
:10023000F550CB6E56EC01F0CDB024EF01F0CDB20D
:1002400036EC01F01CEF01F0CDA22BEC01F042ECFA
:1002500001F01CEF01F00F0EF6604CEC01F00B000A
:10026000F550CB6E56EC01F01CEF01F0000EF66479
:1002700051EC01F0F6060800F550CB6E56EC01F09B
:100280001CEF01F0010EF76E000EF66E0800F5503F
:10029000CB6E56EC01F01200000EF76EFF0EF66EFC
:1002A0001200010EF76E100EF66E1200FF0E106EA9
:1002B000FF0E116E040E126E1006FEE1FF0E106EA0
:0E02C0001106FAE1FF0E116E1206F6E11200B1
:020000040030CA
:0A000000F8FFFFFF9FFFFFFFFFFF67
:00000001FF
