:1000200028EF00F00A0E246B242A235EFDE223262B
:10003000240623C025F024C023F0246A242A235E4A
:10004000FDE22326240623C026F024C027F0120058
:100050003A01706B3F01C56A3F01BD6A0A0E206E0E
:100060003C0E216E0A0E205CD8A050EF00F0330E3B
:10007000205CD8B050EF00F021BE46EF00F03D0EFE
:10008000215CD8B050EF00F053EF00F0010E286E65
:10009000216C0B0E215CD8B050EF00F053EF00F054
:1000A000CD8650EF00F020C023F012EC00F025C008
:1000B00060F026C061F027C062F021C023F012EC8E
:1000C00000F025C070F026C071F027C072F028B093
:1000D00074EF00F02050215CD8B482EF00F0D8B06B
:1000E00076EF00F07CEF00F07CEF00F0020E226E65
:1000F000CD84CD9286EF00F0010E226ECD82CD949C
:1001000086EF00F0000E226ECD92CD940000030029
:020000040030CA
:0A000000F8FFFFFF9FFFFFFFFFFF67
:00000001FF
