:0400000057EF20F0A6
:022000000000DE
:104008002B102B102B102B102B102B102B102B10D0
:10401800C3112B102B102B102B102B102B102B1027
:104028002B102B102B102B102B102B102B102B10B0
:104038002B102B102B102B102B102B102B102B10A0
:104048002B102B102B102B102B102B102B102B1090
:104058002B102B102B102B102B102B102B102B1080
:104068002B102B102B102B102B102B102B102B1070
:104078002B102B102B102B102B102B102B102B1060
:104088002B102B102B102B102B102B102B102B1050
:104098002B102B102B102B102B102B102B102B1040
:1040A8002B102B10FF00FAEF22F020EE1BF010EE81
:1040B80005F00B0E6F006FFFE3FFE806FBE2000E52
:1040C800126E000E116E11501210D8A46EEF20F06F
:1040D80072EF20F0046A042A73EF20F0046A0446A1
:1040E800BB500418FD0B0418BB6E11041210D8A4A1
:1040F80080EF20F084EF20F0046A042A85EF20F096
:10410800046A04460446BB500418FB0B0418BB6E33
:10411800020E11181210D8A494EF20F098EF20F096
:10412800046A042A99EF20F0046A04460446044607
:10413800BB500418F70B0418BB6E030E11181210AD
:10414800D8A4A9EF20F0ADEF20F0046A042AAEEF5E
:1041580020F0046A043ABB500418EF0B0418BB6E35
:10416800070E046E7D0EE82EFED7042EFCD7000045
:10417800CBBAC1EF20F0C3EF20F0CCEF20F0115004
:10418800030DF350050FD96EDA6ADF5007EF21F0FF
:10419800CBBCD1EF20F0D3EF20F0E1EF20F01150AD
:1041A800030D6F00CCFF04F0010E04260450050F28
:1041B800D96EDA6ADF5007EF21F0CBBEE6EF20F0C8
:1041C800E8EF20F0F6EF20F01150030D6F00CCFF60
:1041D80004F0020E04260450050FD96EDA6ADF5087
:1041E80007EF21F0114A122A12BE04EF21F01250F3
:1041F80009E1040E115CD8A004EF21F006EF21F0CC
:1042080067EF20F0000E1200076E010E086ECEB0A8
:1042180010EF21F012EF21F00BEF21F0CEB217EFE3
:1042280021F019EF21F00BEF21F00850300F92EC3C
:1042380021F00750D8A423EF21F025EF21F04EEF0D
:1042480021F0CEA02AEF21F02CEF21F04EEF21F043
:10425800040E086032EF21F034EF21F04EEF21F028
:10426800030E066E8A0E056E560EE82EFED7052E34
:10427800FCD7062EFAD7082ACEB045EF21F047EF33
:1042880021F040EF21F0CE6A0850300F92EC21F077
:104298007DEF21F00704D8A454EF21F056EF21F068
:1042A8007DEF21F0CEA25BEF21F05DEF21F07DEFF5
:1042B80021F0040E086063EF21F065EF21F07DEF37
:1042C80021F0030E066E8A0E056E560EE82EFED7F6
:1042D800052EFCD7062EFAD7082ACEB276EF21F0A3
:1042E80078EF21F071EF21F0CE6A0850300F92EC90
:1042F80021F0CCA882EF21F084EF21F01DEF21F00E
:10430800410E056EEE0EE82EFED7052EFCD700D026
:10431800282A450E92EC21F008501200046EC9EFCD
:1043280021F03F0EBD6E00EF22F0060EBD6E00EFCD
:1043380022F05B0EBD6E00EF22F04F0EBD6E00EF57
:1043480022F0660EBD6E00EF22F06D0EBD6E00EF1E
:1043580022F07D0EBD6E00EF22F0070EBD6E00EF5D
:1043680022F07F0EBD6E00EF22F06F0EBD6E00EFE3
:1043780022F0630EBD6E00EF22F0790EBD6E00EFE5
:1043880022F0490EBD6E00EF22F00450230AD8B483
:10439800C1EF21F0090AD8B4BDEF21F01A0AD8B448
:1043A80095EF21F0010AD8B499EF21F0030AD8B4A7
:1043B8009DEF21F0010AD8B4A1EF21F0070AD8B483
:1043C800A5EF21F0010AD8B4A9EF21F0030AD8B467
:1043D800ADEF21F0010AD8B4B1EF21F00F0AD8B43B
:1043E800B5EF21F0010AD8B4B9EF21F07C0AD8B4AE
:1043F800C5EF21F0C5EF21F01200010EBD6E0D0EC4
:10440800136EFC0EE82EFED7132EFCD7020EBD6EDF
:104418000D0E136EFC0EE82EFED7132EFCD7040EDD
:10442800BD6E0D0E136EFC0EE82EFED7132EFCD7B4
:10443800080EBD6E0D0E136EFC0EE82EFED7132E61
:10444800FCD7100EBD6E0D0E136EFC0EE82EFED7B7
:10445800132EFCD7200EBD6E0D0E136EFC0EE82E2B
:10446800FED7132EFCD759EC20F0146E2F0E1464CF
:1044780040EF22F042EF22F001EF22F0350E1460F7
:1044880048EF22F04AEF22F001EF22F01450D00F4B
:104498001200CEB052EF22F054EF22F05BEF22F080
:1044A800CEA259EF22F05BEF22F085EF22F0CEA0EA
:1044B80060EF22F062EF22F073EF22F0000E08ECBA
:1044C80021F02A6E030E0A6E8A0E096E560EE82E29
:1044D800FED7092EFCD70A2EFAD780EF22F0CEA2FB
:1044E80078EF22F07AEF22F080EF22F0010E08EC4C
:1044F80021F0296E66EF22F02A500A0DF350292484
:10450800276E120001EC22F0186E1850300F92EC52
:1045180021F0060E166E130E156EAE0EE82EFED79F
:10452800152EFCD7162EFAD701EC22F0196E195069
:10453800300F92EC21F0060E166E130E156EAE0EAD
:10454800E82EFED7152EFCD7162EFAD7450E92EC7C
:1045580021F018500A0DF3501924176E1750120045
:10456800036ACC96CC8C030E026E8A0E016E560E30
:10457800E82EFED7012EFCD7022EFAD7CC86CC9C8B
:10458800030E026E8A0E016E560EE82EFED7012E1D
:10459800FCD7022EFAD7032A040E0364D6EF22F0C2
:1045A800D8EF22F0B5EF22F01200E10EC36E100E24
:1045B800C46EC56A030EC66E3A01506B606B706BB1
:1045C800806BCB6ACC6ACD6ACE6A1E0EBB6EBD6AA2
:1045D800D28AD28ED28CD280390181819181A191E7
:1045E800D76A400ED66E080ED56E1200000EF66E13
:1045F800470EF76E000EF86E00EE1BF010EE0CF092
:1046080009006F00D7FFEEFFE550E150F9E12A6A93
:10461800296A286A276A080ED56E400ED66E000EE3
:10462800D76E000136EF23F0020E2818D8A41FEF2A
:1046380023F021EF23F035EF23F0275073EC23F01C
:104648000009D8B42AEF23F02CEF23F030EF23F041
:1046580057EC23F032EF23F065EC23F02A6A296A3D
:10466800286A1200D9EC22F0CC8686EC22F02B6E58
:10467800CC8647EC23F04DEC22F018EC23F03CEF0D
:1046880023F057EF20F059EC20F01A6E2A0E1A1872
:10469800D8A451EF23F053EF23F056EF23F086EC24
:1046A80022F02B6E1200CC8E100E056E390E046EA1
:1046B8000E0EE82EFED7042EFCD7052EFAD7CC9E78
:1046C8001200CC8C0B0E056E260E046E5E0EE82EC4
:1046D800FED7042EFCD7052EFAD7CC9C1200046E08
:1046E8002B500418D8B47BEF23F07EEF23F0010E93
:1046F8007FEF23F0000E120031323334353637386D
:0E470800392A3023B4EC22F03901A1911100BE
:020000040030CA
:0A000000F8FFFFFF9FFFFFFFFFFF67
:00000001FF
